:020000000EC030
:0200040053C0E7
:1400140000000000010046000100CFE9D0E0CDBFDEBFCE51E0
:14002800D0400AEA08830024EAE6F0E010E0EA36F10711F068
:14003C000192FBCF0083E4E1F0E0A0E6B0E010E000E00BBF8B
:14005000EE31F10721F0C89531960D92F9CF39D0FFCF0150C1
:14006400104081E090E080179107CCF308954A935A93A80169
:1400780005C008EC10E0F1DF4150504040304507C1F759917C
:14008C00499108958FEF87BB88BB87B38D7F87BB8FEF88BB9D
:1400A00080E28BBF82E085BB789408952A923A922FB62A922C
:1400B40022243324309269002092680030926300209262001D
:1400C80029902FBE399029901895DEDFC49A08EC10E0CBDFA6
:1400DC00222428BA4AC080916800909169008130E0E09E07C5
:1400F000C9F580916400909165008130E0E09E0729F52224C9
:14010400332430926300209262000CC008EE13E0AEDF809104
:14011800620090916300019690936300809362002090660045
:14012C003090670040906200509063002414350448F722242D
:14014000332430926500209264000CC0C49A04EF11E08FDF9B
:14015400222428BA81E090E0909365008093640081E090E0CE
:12016800909369008093680008E813E17EDFB5CF08951C
:00000001FF
